:020000040800F2
:10000000980500209D0100082319000853160008D8
:1000100021190008A9030008071D000800000000BE
:100020000000000000000000000000004719000868
:10003000AB0300080000000045190008491900083A
:10004000B7010008B7010008B7010008B7010008B0
:10005000B7010008B7010008AD030008B7010008A8
:10006000B7010008B7010008B7010008B701000890
:10007000B7010008B7010008B7010008B701000880
:10008000B7010008B7010008B7010008B701000870
:10009000B7010008B7010008B7010008BB0300085A
:1000A000B7010008B7010008B7010008B701000850
:1000B000351A0008411A0008B7010008B701000806
:1000C000B7010008B7010008B7010008B701000830
:1000D000B7010008B7010008B7010008B701000820
:1000E000B3030008B7010008B7010008B701000812
:1000F000B70100084D1A0008B7010008B701000851
:10010000B7010008B7010008B7010008B7010008EF
:10011000B7010008B7010008B7010008B7010008DF
:10012000B7010008B7010008B7010008B7010008CF
:10013000B7010008B7010008B7010008B7010008BF
:10014000B7010008B7010008B7010008B7010008AF
:10015000B7010008B7010008B7010008B70100089F
:10016000B7010008B7010008B7010008B70100088F
:10017000B7010008B7010008B7010008000000003F
:10018000B7010008B7010008DFF80CD000F068F8EC
:1001900000480047B51E0008980500200648804723
:1001A00006480047FEE7FEE7FEE7FEE7FEE7FEE75C
:1001B000FEE7FEE7FEE7FEE7E11900088901000817
:1001C0002DE9F05F0546002092469B46884606468C
:1001D000814640241BE0284641464746224600F01F
:1001E0002FF853465A46C01A914110D3114618466B
:1001F000224600F016F82D1A67EB01084F462246FA
:100200000120002100F00DF817EB00094E41201EDF
:10021000A4F10104DFDC484631462A464346BDE8E6
:10022000F09F202A04DB203A00FA02F100207047F8
:100230009140C2F1200320FA03F319439040704724
:10024000202A04DB203A21FA02F00021704721FA2B
:1002500002F3D040C2F12002914008431946704792
:10026000064C074D06E0E06840F0010394E8070003
:1002700098471034AC42F6D3FFF78AFF50200008AD
:1002800070200008454910B54A6822F440324A609F
:100290004A6843681A434A6001684A6822F48072D7
:1002A0004A6001684A68036942EA03224A600168B9
:1002B0004A6822F040724A6001684A6883681A43BB
:1002C0004A6001688A6822F400628A6001688A686C
:1002D000C3681A438A60816A6FF07062D142016814
:1002E0008A6822F070628A6001688A680CD0836A2A
:1002F0001A438A6001688A6822F040528A60016865
:100300008A68C36A1A4301E022F040528A60016899
:100310008A6822F002028A6001688A68836942EA78
:1003200043028A60016A002901684A680FD042F4DA
:1003300000624A6001684A6822F460424A600168CB
:100340004A68174C436A04EB43331A4301E022F432
:1003500000624A600168CA6A22F47002CA620168D7
:10036000CA6A838B0F4C04EB03531A43CA620168B9
:100370008A6822F400728A6001688A68036B42EA24
:1003800043228A6001688A6822F480628A60016878
:100390008A68406942EA8020886010BD00230140DD
:1003A00000E0FFFF0000F0FFFEE77047012000F0D3
:1003B000DFB94FF4806000F0DBB9802000F0D8B9DD
:1003C00078B50024009490F83C20012A19D001222D
:1003D00080F83C200A6807230568092A13D9EE68CB
:1003E0000A3A02EB420293409E43EE600B788A6821
:1003F0000A3B03EB43039A400368DD682A43DA6053
:1004000010E0022078BD2E6902EB420293409E4329
:100410002E610B788A6803EB43039A4003681D69D9
:100420002A431A614A681F23072A13D205686E6B94
:10043000521E02EB820293409E436E630B790A8840
:100440005B1E92B203EB83039A4003685D6B2A4301
:100450005A6327E005680D2A12D22E6BD21F02EBD9
:10046000820293409E432E630B790A88DB1F92B26F
:1004700003EB83039A4003681D6B2A431A6311E060
:10048000EE6A0D3A02EB820293409E43EE620B79D4
:100490000A880D3B92B203EB83039A400368DD6A3E
:1004A0002A43DA62164B0568144A9D4206D10D684C
:1004B000122D03D1556845F48005556005689D42AD
:1004C00018D10B68102B01D0112B13D1536843F4B2
:1004D00000035360096810290CD10A490A4A0968C7
:1004E000B1FBF2F101EB8101490000E0491E0091EE
:1004F0000029FBD180F83C40002078BD002301405A
:10050000002001402000002040420F000068C06C25
:10051000704770B504004FF0000503D0206C002632
:1005200010B107E0012070BD666484F83C6020468D
:1005300000F01AF8206CC00610D4206C20F488500B
:1005400040F0020020642046FFF79CFE6664206CA9
:1005500020F0020040F00100206400E0012584F852
:100560003C60284670BD000000B500680C4987B0AB
:10057000884212D10B480021026842F48072026066
:10058000006800F480700590202000900320CDE9E1
:1005900001016946044800F0F7F807B000BD00000B
:1005A0000020014044380240000002402DE9F041A3
:1005B000044600680D4681684FF0000749050BD5D9
:1005C0008068C00508D5206C40F02000206484F8C5
:1005D0003C700120BDE8F08100F0B4F906460FE060
:1005E000681C0DD025B100F0ADF9801BA84207D9D9
:1005F000206C40F00400206484F83C700320E9E79C
:10060000206800688007EBD521686FF01200086051
:10061000206C40F4007020642068816811F0405F15
:1006200013D1A16989B9C16A11F4700F02D0806831
:1006300040050AD4206C20F480702064206CC00433
:1006400003D4206C40F0010020640020C2E70000C9
:1006500018B50021009190F83C20012A07D0012212
:1006600080F83C2002689368DB0702D011E002208A
:1006700018BD936843F001039360204A204B126831
:10068000B2FBF3F202EB420200E0521E0092002A9B
:10069000FBD102689368DB072DD0036C40F2016444
:1006A000A34343F48073036453685B0505D5036C6F
:1006B00023F4005343F480530364036CDB0404D538
:1006C000436C23F00603436400E0416480F83C106F
:1006D0000C496FF02203136049680068C90602D014
:1006E0000949884207D1816811F0405F03D18168D0
:1006F00041F080418160002018BD000020000020F2
:1007000040420F00002301400020014090F83C10BF
:1007100001290CD0012180F83C1001688A6822F080
:1007200001028A6001688968C90702D007E00220D7
:100730007047016C21F4885141F0010101640021EE
:1007400080F83C10084670470849012807D08028E7
:100750000AD0B0F5806F01D15020C880704708786A
:1007600080F00100087070470520F6E700000020C7
:10077000044910B50A68024202D00860FFF7E4FF9E
:1007800010BD0000143C01402DE9F84FDFF87CB1AA
:1007900000224FF001084FF0030A4FF00F090BF150
:1007A000040E00BF0B6808FA02F42340A3426ED186
:1007B0004D68022D01D0122D0ED1D50800EB850C0D
:1007C000DCF820505607F70E09FA07F6B5430E6914
:1007D000BE402E43CCF82060066855000F790AFA17
:1007E00005FC07F0030726EA0C06AF403743076015
:1007F0004E68012E05D0022E03D0112E01D0122EEC
:100800000ED18668CF6826EA0C06AF403743876072
:100810004668A6430C79C4F3001494403443446002
:10082000C6688C6826EA0C06AC403443C4604C6849
:10083000E40065D5364C256845F48045256024687C
:1008400022F0030504F480440094324C2E19D6F8AB
:10085000084895072F0F09FA07F5AC432E4DA8421B
:1008600001D1002524E02D4DA84201D101251FE032
:100870002B4DA84201D102251AE02A4DA84201D1F0
:10088000032515E0284DA84202D1042510E037E0E9
:10089000264DA84201D105250AE0254DA84201D1E7
:1008A000062505E0234DA84201D1072500E00825D3
:1008B000BD402543C6F80858DBF800405D464E6849
:1008C0009C43F60300D51C432C60DEF800407546BF
:1008D0004E689C43B60300D51C432C600B4D083575
:1008E0002C684E689C43F60200D51C432C60074DD3
:1008F0000C352C684E689C43B60200D51C432C6016
:10090000521C102AFFF44EAFBDE8F88F003C0140A6
:100910004438024000300140000002400004024020
:1009200000080240000C0240001002400014024087
:1009300000180240001C02400AB18161704709049E
:10094000FBE70000014880687047000014000020A9
:1009500002488168027811448160704714000020C9
:100960000B4810B5016841F400710160016841F461
:1009700080610160016841F480710160032000F032
:1009800097F8002000F006F800F024F8002010BDD1
:10099000003C024070B50D4D04464FF47A71287842
:1009A000B1FBF0F00A490968B1FBF0F000F0FDFA84
:1009B00048B9102C07D200222146501E00F058F8EA
:1009C00000206C6070BD012070BD0000140000208C
:1009D000200000201F4808B5016841F480410160F3
:1009E000006800F4804000901A48001F016841F040
:1009F00080510160006800F080500090032000F0FA
:100A000057F8002211466FF00B0000F031F8002279
:100A100011466FF00A0000F02BF8002211466FF02B
:100A2000090000F025F800221146501F00F020F8C0
:100A300000221146101F00F01BF800221146901EE4
:100A400000F016F80022BDE808401146501E00F0E4
:100A50000FB800004438024000F01F02012191400D
:100A60004009800000F1E020C0F80011704700004C
:100A7000F0B40E4B1B680C46C3F30223C3F1070509
:100A8000042D00D90425191D072901D2002300E0F7
:100A9000DB1E012606FA05F1491E214099409E40C1
:100AA000761E16403143F0BC00F03CBF0CED00E078
:100AB000064900F0070208684FF6FF03184040EAB5
:100AC0000220034A10430860704700000CED00E06C
:100AD0000000FA052DE9F0470E46050065D0DFF865
:100AE0001481D8F80000F7B200F00F00B04207D22E
:100AF00088F80070D8F8000000F00F00B04254D120
:100B000028683D4C810712D5400703D5206840F482
:100B1000E05020602878000703D5206840F460404A
:100B200020602068A96820F0F00008432060287841
:100B3000C0072DD0304968680839012812D0022832
:100B400013D0032811D00968890700292DDA2168FC
:100B500021F0030101432160FFF7F4FE814641F2D9
:100B6000883A0EE009688903EFE709688901ECE734
:100B7000FFF7E8FEA0EB0901514502D90320BDE8CB
:100B8000F0872068696800F00C00B0EB810FEFD1AE
:100B9000D8F80010404601F00F01B14207D90770A4
:100BA000006800F00F00B04201D00120E7E728788C
:100BB000400705D52068E96820F4E050084320602C
:100BC0002878000706D52068296920F4604040EAAB
:100BD000C100206000F01CF82168084AC1F303112D
:100BE000515CC840064908600020FFF7D3FE002092
:100BF000C5E70000003C02400838024040200008E1
:100C000020000020014800687047000020000020FC
:100C1000154810B5006810F00C02144813D01449A0
:100C2000042A0FD0082A0ED10F4C241F22682368F3
:100C300002F03F025B0207D52068C0F38810A0FBDA
:100C4000010106E0084610BD2168C1F38811A1FB2F
:100C500000010023FFF7B4FA2168C1F30141491CE8
:100C60004900B0FBF1F010BD083802400024F40048
:100C700040787D012DE9F84F050076D02878DFF81F
:100C8000F8B2BE4CC00749D0DBF800105846C1F39B
:100C90008101012908D00068C0F3810002280AD12F
:100CA000201D0068400206D52068800336D568689C
:100CB0000028E2D032E06868B0F5803F10D0B0F58F
:100CC000A02F206810D020F480302060206820F40D
:100CD000802020606868A0B1FFF734FE06460CE073
:100CE000206840F48030F4E740F480202060F7E78B
:100CF000FFF728FE801B642873D820688003F7D58F
:100D00000CE0FFF71FFE064605E000BFFFF71AFEE6
:100D1000801B6428F0D820688003F7D42878DFF897
:100D2000608280074FF000093ED5DBF8001058467E
:100D300011F00C0F09D00068C0F3810002280BD11C
:100D40008D48001F0068400206D42068800715D532
:100D5000E868012809D111E0E868B8B10120C8F8B5
:100D60000000FFF7EFFD064605E002E1FFF7EAFDB0
:100D7000801B0228C0D820688007F7D52068296921
:100D800020F0F80040EAC10020600DE0C8F80090B3
:100D9000FFF7D8FD064604E0FFF7D4FD801B0228CC
:100DA0001FD820688007F7D42878000722D5724E14
:100DB000744869696C3671B101210160FFF7C2FDA9
:100DC000074604E0FFF7BEFDC01B022809D83068C3
:100DD0008007F7D50EE0C0F80090FFF7B3FD074697
:100DE00005E083E0FFF7AEFDC01B02287ED8306827
:100DF0008007F7D42878400768D5DFF87CA1002762
:100E00000AF1380ADAF80000C0000BD4DAF8001052
:100E100041F08051CAF80010DAF80000012700F014
:100E200080500090584E3068C00510D4306840F4AF
:100E300080703060FFF786FD009005E0FFF782FDCF
:100E40000099401A022851D83068C005F6D54A4E9C
:100E5000A868683601280FD00528306810D020F027
:100E600001003060306820F004003060A868B8B13C
:100E7000FFF768FD00900FE0306840F00100F4E7F4
:100E800040F004003060F7E7FFF75CFD0099411A7D
:100E900041F28830814264D830688007F4D50EE092
:100EA000FFF750FD009007E0FFF74CFD0099411A55
:100EB00041F28830814254D830688007F4D42FB191
:100EC000DAF8001021F08051CAF80010A869C0B308
:100ED000DBF80010C1F3810102294AD002284846FC
:100EE00007D0C8F86000FFF72DFD00E039E00546A7
:100EF0003AE04746C8F86000FFF724FD064604E0E4
:100F0000FFF720FD801B02282BD820688001F7D432
:100F1000D5E907010843A96A1C4A490802EB0141C7
:100F20006A6A41EA8211084395F82C1040EA01618F
:100F30001148001F016001203866FFF703FD0546D8
:100F400005E014E0FFF7FEFC401B022809D82068EA
:100F50008001F7D50BE000BFFFF7F4FC401B02282F
:100F600002D90320BDE8F88F20688001F4D4002066
:100F7000F8E70120F6E70000083802400038024098
:100F800000004742800E4742007000400000FFFF13
:100F90004FF0E0210428086903D020F00400086124
:100FA000704740F00400FAE7704710B5401EB0F1FA
:100FB000807F01D3012010BD4FF0E02460610F213C
:100FC000601700F0AFFC0020A06107202061002026
:100FD00010BD10B5FFF7E8FF10BD7047704710B5A2
:100FE00090F83820012A25D0012280F83820CA68DC
:100FF0008C6822F4407222434C6822F480622243BF
:101000000C6822F4006222430C6922F480522243CD
:101010004C6922F4005222438C6922F4804222431C
:1010200022F40041026800232143516480F83830E3
:10103000002010BD022010BD30B590F83820012AE4
:1010400020D0012280F83820022380F8393003684C
:101050005C6824F070045C6003685C680D682C4375
:101060005C6003689C6824F080049C6003689C6852
:1010700049680C439C6080F83920002180F83810C2
:10108000084630BD022030BD10B5040003D094F8EE
:10109000390010B107E0012010BD002084F83800AD
:1010A000204600F00DF8022084F83900211D206848
:1010B00000F0D2FC012084F83900002010BD0000AF
:1010C00008B501681948B1F1804F0BD0184A914218
:1010D00017D1016841F010010160006800F01000B4
:1010E000009008BD016841F0010101600068002224
:1010F00000F00100009011461C20FFF7B9FC1C20F5
:1011000010E00C4A9142ECD1016841F48071016019
:101110000068002200F48070009011462D20FFF737
:10112000A7FC2D20BDE80840FFF796BC40380240E0
:1011300000100040002000400168CA6842F001022F
:10114000CA600068016841F0010101600020704739
:101150000168CA6822F00102CA600068016A41F2AF
:101160001112114207D1016A9210114203D1016894
:1011700021F0010101600020704770B5044690F82D
:101180003800012817D0012584F83850022084F84F
:1011900039002068826822F0770222F47F42826060
:1011A0000868502837D00DDC202859D005DC88B3DA
:1011B000102841D151E0022070BD302853D0402882
:1011C0003AD13FE060282ED070280BD0B0F5805F78
:1011D00003D0B0F5005F2FD110E02068816821F0C6
:1011E000070115E0CB68D1E90121206800F09FFCE0
:1011F0002168886840F0770088601DE0CB68D1E9FD
:101200000121206800F093FC2068816841F480414E
:10121000816011E01EE0CA684968206800F050FD56
:101220005021206806E0CA684968206800F059FD2E
:101230006021206800F085FC84F83950002084F893
:10124000380070BDCA684968206800F039FD402147
:101250002068EFE700212068ECE710212068E9E72B
:1012600020212068E6E730212068E3E7704770B569
:101270000446006801694FF00005C943890715D489
:10128000C168C943890711D4E91E01610120207694
:10129000206880698007204602D0FFF7E7FF04E05E
:1012A00000F0C2F8204600F06FF925762068016949
:1012B000C943490717D4C168C943490713D46FF01C
:1012C00004010161022020762068806910F4407FCB
:1012D000204602D0FFF7CAFF04E000F0A5F8204640
:1012E00000F052F9257620680169C943090716D430
:1012F000C168C943090712D46FF0080101610420D5
:1013000020762068C0698007204602D0FFF7AEFF34
:1013100004E000F089F8204600F036F925762068D0
:101320000169C943C90617D4C168C943C90613D4A2
:101330006FF010010161082020762068C06910F468
:10134000407F204602D0FFF791FF04E000F06CF8E8
:10135000204600F019F9257620680169C943C907BC
:1013600008D1C168C943C90704D1891E016120465B
:1013700000F056F920680169C943090609D4C1681B
:10138000C943090605D46FF0800101612046FFF7CB
:1013900024FE20680169C943490609D4C168C943CC
:1013A000490605D46FF040010161204600F050F974
:1013B00020680169C94389060BD4C168C9438906FD
:1013C00007D46FF0200101612046BDE87040FFF7AF
:1013D00005BE70BD00B5104B02680021022085B02B
:1013E0009A4209D102020092CDE901010120CDE922
:1013F0000310694609480AE0094B9A4209D1402284
:101400000092CDE90101CDE9031069460548FFF7D7
:10141000BBF905B000BD0000000001400010024013
:101420000004004000000240704770B5044690F888
:1014300038000D4601280DD0012684F838600220BE
:1014400084F8390042B1042A18D0082A2AD00C2A7C
:101450004DD139E0022070BD206800F07BFB206890
:10146000816941F0080181612068816921F00401EE
:101470008161206881692A69114311E0206800F0C8
:1014800095FB2068816941F4006181612068816970
:1014900021F480618161206881692A6941EA022121
:1014A000816124E0206800F0B3FB2068C16941F04D
:1014B0000801C1612068C16921F00401C16120688F
:1014C000C1692A69114311E0206800F0D1FB20684E
:1014D000C16941F40061C1612068C16921F4806182
:1014E000C1612068C1692A6941EA0221C16184F8A9
:1014F0003960002084F8380070BD10B5040003D0B6
:1015000094F8390010B107E0012010BD002084F8E4
:101510003800204600F00CF8022084F83900211D24
:10152000206800F099FA012084F83900002010BDED
:1015300008B500681149884209D11148016841F095
:1015400001010160006800F00100009008BD0D4934
:101550008842FBD10A48001F016841F00201016086
:101560000068002200F00200009011461D20FFF7E5
:101570007FFABDE808401D20FFF76EBA0000014069
:1015800044380240000400407047000010B5044693
:101590000068012200F0C0FA08492068884202D0A1
:1015A0000749884203D1416C41F4004141642068FD
:1015B000016841F001010160002010BD0000014000
:1015C0000004014010B504460068002200F0A4FAAF
:1015D000114841F2111221689310814202D00F4844
:1015E000814209D1086A104206D1086A184203D123
:1015F000486C20F4004048642068016A114206D11A
:10160000016A194203D1016821F001010160012042
:1016100084F83900002010BD0000014000040140A2
:10162000094900680968884205D10848417919B11B
:101630004189491C4181704701790029FBD001890A
:10164000491C018170470000A80000200000002014
:101650007047FEE77FB5124810490024C0E9001426
:10166000046184614FF00071046281600D49C0E93A
:101670000A140125C460C56145610463FEF749FF92
:1016800000B1FEE70520CDE9000569460294044853
:10169000FEF796FE002800D0FEE77FBD0020014047
:1016A000240000200100000F2DE9F04F464887B0CC
:1016B0000024016841F001010160016801F00101AD
:1016C0000591016841F010010160016801F010010D
:1016D0000591016841F002010160016801F0020119
:1016E0000591016841F008010160016801F00801FD
:1016F0000591016841F0040101600068DFF8CC90B9
:1017000000F004004FF4F0450590002229464846B9
:10171000FFF712F9DFF8B8A04FF6F8570022394664
:101720005046FFF709F9DFF8ACB04FF4204800222B
:1017300041465846FFF700F9274E40F20140CDE9F7
:101740000006694602942548FFF71EF8009501251A
:10175000CDE90154694648460394FFF715F8009710
:10176000CDE90154694650460394FFF70DF8CDF8D2
:101770000080CDE90154694658460394FFF704F808
:101780008020CDE90006694602941548FEF7FCFF6B
:10179000002211460620FFF76BF90620FFF75CF9DF
:1017A000002211461720FFF763F91720FFF754F9BD
:1017B000002211462820FFF75BF92820FFF74CF99B
:1017C00007B0BDE8F08F0000303802400010024042
:1017D00000040240000C0240000011100000024012
:1017E0000008024010B5204890B01E4901604FF437
:1017F000A0710024C0E901144FF47A71C0E9031408
:101800004461FFF77AFE00B1FEE70E940EA9164878
:101810000F94FFF711FC00B1FEE7602000904FF439
:10182000FA70CDE9010403940494059400226946FA
:101830000D480694FFF7F9FD00B1FEE70794089400
:1018400009944FF400500A94CDE90B4007A90648CB
:101850000D94FFF7C4FB00B1FEE70348FFF7BAFDA4
:1018600010B010BD000001406C00002010B51248FF
:1018700086B04FF08041016043F67F610024C0E9EB
:1018800001140911C0E90314FFF7FEFB00B1FEE7E4
:101890004FF48050009069460748FFF76EFC00B196
:1018A000FEE7049404A904480594FFF7C5FB00284B
:1018B00000D0FEE706B010BDA800002010B5174804
:1018C0008AB0154901604FF4A0710024C0E90114E9
:1018D0004FF47A71C0E90314FFF70FFE00B1FEE781
:1018E000079407A90D480894FFF7A6FB00B1FEE78F
:1018F000602000904FF4FA70CDE90104002269469F
:1019000006480494FFF791FD00B1FEE70348FFF796
:1019100061FD0AB010BD000000040040E40000209A
:10192000FEE770470907090E002806DA00F00F00ED
:1019300000F1E02080F8141D704700F1E02080F8ED
:10194000001470477047704710B5FFF701F8BDE805
:101950001040FFF73EBB000010B51F4892B00024B6
:10196000016841F080510160006800F080501190E2
:101970001A48016841F4804101600068069400F44F
:1019800080401190022000900120039010200490CC
:101990006846FFF76FF900B1FEE70F20CDE90C04B0
:1019A0000E940F9400210CA81094FFF793F800B147
:1019B000FEE7FFF727F94FF47A71B0FBF1F0FFF77C
:1019C000F4FA0420FFF7E4FA00221146501EFFF754
:1019D0004FF812B010BD00004038024000700040C7
:1019E0001048016841F4700101600F48016841F03E
:1019F000010101600C4A00210832116002680B4BA2
:101A00001A400260031D0A4A1A60026822F480220A
:101A1000026005480C3001600249580680390860B0
:101A20007047000088ED00E000380240FFFFF6FE3E
:101A3000103000240148FFF71ABC0000A800002065
:101A40000148FFF714BC0000E40000200148FFF744
:101A50000EBC00005C010020F0B50268234B244D51
:101A6000244E254F254C4FF0804C984209D06045BC
:101A700007D0A84205D0B04203D0B84201D0A0425E
:101A800004D122F0700E4A6842EA0E0298421BD03E
:101A9000604519D0A84217D0B04215D0B84213D033
:101AA000A04211D0164DA8420ED0164DA8420BD020
:101AB000154DA84208D0154DA84205D0144DA84296
:101AC00002D0144DA84203D122F44075CA682A43BB
:101AD00002608A68C2620A688262984201D0A042AB
:101AE00001D10969016301214161F0BD000001409C
:101AF0000004004000080040000C004000040140C9
:101B000000400140004401400048014000180040EE
:101B1000001C00400020004010B50123046A8B40E7
:101B20009C430462036A8A401343036210BD10B5EC
:101B3000846842EA032224F47F440A4322438260F9
:101B400010BD826822F070020A4342F007018160F2
:101B50007047000030B5026A22F001020262026A98
:101B6000436884690D6824F07304254322F002045D
:101B70008A6822430B4CA04202D00B4CA0420BD1EE
:101B800022F00804CA6823F4407322434C6922F00F
:101B900004021C438B6923434360856149684163A8
:101BA000026230BD000001400004014030B5026A0D
:101BB00022F010020262026A436884690D6824F40C
:101BC000E64444EA05248D6822F0200242EA051228
:101BD0000D4DA84202D00D4DA8420ED1CD6822F085
:101BE000800242EA05124D6923F4406343EA85030B
:101BF0008D6922F0400243EA8503436084614968AD
:101C00008163026230BD0000000001400004014019
:101C100030B5026A22F480720262036A4268C469C3
:101C200023F4007324F073050C682C438D6843EA99
:101C300005230D4DA84202D00C4DA8420ED1CD680F
:101C400023F4006343EA05234D6922F4405242EA3B
:101C500005128D6923F4806342EA05124260C46173
:101C60004968C163036230BD0000014000040140C7
:101C700030B5026A22F480520262046A4268C36983
:101C80000D6823F4E64343EA05238D6824F40054E9
:101C900044EA0534084DA84202D0084DA84204D1B8
:101CA0004D6922F4804242EA85124260C36149686C
:101CB0000164046230BD00000000014000040140E6
:101CC00010B5036A046A24F001040462846924F0F4
:101CD000F00444EA021423F00A020A438461026217
:101CE00010BD10B5036A23F0100303628369046A10
:101CF00023F4704343EA023224F0A00343EA0111C3
:101D00008261016210BDFEE702E008C8121F08C12F
:101D1000002AFAD170477047002001E001C1121F6C
:101D2000002AFBD1704700002DE9F0414FF4005626
:101D3000174D77000C460A280BDA01223146284657
:101D4000FEF7FAFD002239462846FEF7F5FD01248C
:101D50001BE0A0F10A013C290AD80022314628469E
:101D6000FEF7EAFD002239462846FEF7E5FD0CE0C5
:101D700046280ADD012239462846FEF7DDFD00220D
:101D800031462846FEF7D8FD00242046BDE8F08104
:101D90000010024010B5134C00224FF400412046C1
:101DA000FEF7CAFD00224FF400512046FEF7C4FDA5
:101DB00000210D48FFF706FC0B483C30FFF7C8F93F
:101DC000094800217830FFF7FDFB07484838FEF747
:101DD0009DFC06490020C87008814881087148713F
:101DE00010BD0000000C02406C000020000000202C
:101DF00010B5104C0122D1032046FEF79DFD0022B4
:101E00004FF400512046FEF797FD0B48FEF720FCEB
:101E100009488430FFF790F9074800214830FFF760
:101E2000B5FB05480021C030FFF7B0FB0349012096
:101E3000C87010BD000C02402400002000000020EB
:101E40002DE9F041194D0C46AF144FF40066C82837
:101E50000BDA012231462846FEF76EFD0022394694
:101E60002846FEF769FD01241DE011490A694FF477
:101E7000FA718A420ADC002231462846FEF75CFDF0
:101E8000002239462846FEF757FD0CE088420ADD5D
:101E9000012239462846FEF74FFD002231462846EA
:101EA000FEF74AFD00242046BDE8F0810010024004
:101EB000000000201CB5FEF753FDFFF74DFDFFF7B6
:101EC000F3FBFFF7FBFCFFF7C5FBFFF78BFCFFF70E
:101ED000CDFC444842490025C0E900158560C56035
:101EE000FFF7D2F800B1FEE7009569463D4801953D
:101EF000FFF7A2F800B1FEE73A483B493C300160E9
:101F000043F67F61C0E9011541F28831C0E903154C
:101F1000FFF7BAF8DFF8CC800126A8F13C08334C73
:101F200064274FF0320AA8F17809E0B3FEE708B958
:101F3000FFF75EFF2B48FC38FEF78AFB29484FF479
:101F4000FA71FC38FEF732FB88B92648FC38FEF7F8
:101F5000DDFAE060E06800EB400020616178206914
:101F6000FFF76EFF60701F48FC38FEF7CFFB60780C
:101F700020B16671D8F80000476307E0607828B99F
:101F8000D8F80000C0F834A065716581A178B4F973
:101F90000600FFF7C9FEA070A07828B12671D9F815
:101FA0000000476308E012E0A07828B9D9F80010D3
:101FB000C1F834A025712581B4F90800052803DC97
:101FC000B4F90A000A2802DD2570FFF7E3FE207845
:101FD0000028E078ABD10028F9D000F009F8F6E746
:101FE00000100040200100200020004000000020E0
:101FF00010B5104C00224FF400412046FEF79CFC27
:10200000012251032046FEF797FC00210A48FFF702
:10201000D9FA09483C30FFF79BF80748002178308F
:10202000FFF7D0FA04484838FEF770FB0349002058
:10203000C87010BD000C02406C00002000000020A1
:102040000000000000000000010203040607080968
:10205000702000080000002024000000081D000877
:10206000942000082400002074050000181D0008BA
:102070000000000000000000000000000000000060
:10208000000000000100000010000000000000003F
:042090000024F40034
:040000050800018965
:00000001FF
