:020000040800F2
:10000000E80400209D010008B7140008C912000888
:10001000B5140008A90300080D180008000000002E
:10002000000000000000000000000000DB140008D9
:10003000AB03000800000000D9140008DD1400081C
:10004000B7010008B7010008B7010008B7010008B0
:10005000B7010008B7010008AD030008B3030008AA
:10006000B9030008B7010008B7010008B70100088C
:10007000B7010008B7010008B7010008B701000880
:10008000B7010008B7010008B7010008B701000870
:10009000B7010008B7010008B7010008B701000860
:1000A000B7010008B7010008B7010008B701000850
:1000B000B7010008B7010008B7010008B701000840
:1000C000B7010008B7010008B7010008B701000830
:1000D000B7010008B7010008B7010008B701000820
:1000E000B7010008B7010008B7010008B701000810
:1000F000B7010008B7010008B7010008B701000800
:10010000B7010008B7010008B7010008B7010008EF
:10011000B7010008B7010008B7010008B7010008DF
:10012000B7010008B7010008B7010008B7010008CF
:10013000B7010008B7010008B7010008B7010008BF
:10014000B7010008B7010008B7010008B7010008AF
:10015000B7010008B7010008B7010008B70100089F
:10016000B7010008B7010008B7010008B70100088F
:10017000B7010008B7010008B7010008000000003F
:10018000B7010008B7010008DFF80CD000F068F8EC
:100190000048004775190008E80400200648804719
:1001A00006480047FEE7FEE7FEE7FEE7FEE7FEE75C
:1001B000FEE7FEE7FEE7FEE7751500088901000887
:1001C0002DE9F05F0546002092469B46884606468C
:1001D000814640241BE0284641464746224600F01F
:1001E0002FF853465A46C01A914110D3114618466B
:1001F000224600F016F82D1A67EB01084F462246FA
:100200000120002100F00DF817EB00094E41201EDF
:10021000A4F10104DFDC484631462A464346BDE8E6
:10022000F09F202A04DB203A00FA02F100207047F8
:100230009140C2F1200320FA03F319439040704724
:10024000202A04DB203A21FA02F00021704721FA2B
:1002500002F3D040C2F12002914008431946704792
:10026000064C074D06E0E06840F0010394E8070003
:1002700098471034AC42F6D3FFF78AFF201A0008E3
:10028000401A0008454910B54A6822F440324A60D5
:100290004A6843681A434A6001684A6822F48072D7
:1002A0004A6001684A68036942EA03224A600168B9
:1002B0004A6822F040724A6001684A6883681A43BB
:1002C0004A6001688A6822F400628A6001688A686C
:1002D000C3681A438A60816A6FF07062D142016814
:1002E0008A6822F070628A6001688A680CD0836A2A
:1002F0001A438A6001688A6822F040528A60016865
:100300008A68C36A1A4301E022F040528A60016899
:100310008A6822F002028A6001688A68836942EA78
:1003200043028A60016A002901684A680FD042F4DA
:1003300000624A6001684A6822F460424A600168CB
:100340004A68174C436A04EB43331A4301E022F432
:1003500000624A600168CA6A22F47002CA620168D7
:10036000CA6A838B0F4C04EB03531A43CA620168B9
:100370008A6822F400728A6001688A68036B42EA24
:1003800043228A6001688A6822F480628A60016878
:100390008A68406942EA8020886010BD00230140DD
:1003A00000E0FFFF0000F0FFFEE77047012000F0D3
:1003B000E7B9022000F0E4B9042000F0E1B9000040
:1003C00078B50024009490F83C20012A19D001222D
:1003D00080F83C200A6807230568092A13D9EE68CB
:1003E0000A3A02EB420293409E43EE600B788A6821
:1003F0000A3B03EB43039A400368DD682A43DA6053
:1004000010E0022078BD2E6902EB420293409E4329
:100410002E610B788A6803EB43039A4003681D69D9
:100420002A431A614A681F23072A13D205686E6B94
:10043000521E02EB820293409E436E630B790A8840
:100440005B1E92B203EB83039A4003685D6B2A4301
:100450005A6327E005680D2A12D22E6BD21F02EBD9
:10046000820293409E432E630B790A88DB1F92B26F
:1004700003EB83039A4003681D6B2A431A6311E060
:10048000EE6A0D3A02EB820293409E43EE620B79D4
:100490000A880D3B92B203EB83039A400368DD6A3E
:1004A0002A43DA62164B0568144A9D4206D10D684C
:1004B000122D03D1556845F48005556005689D42AD
:1004C00018D10B68102B01D0112B13D1536843F4B2
:1004D00000035360096810290CD10A490A4A0968C7
:1004E000B1FBF2F101EB8101490000E0491E0091EE
:1004F0000029FBD180F83C40002078BD002301405A
:10050000002001402000002040420F000068C06C25
:10051000704770B504004FF0000503D0206C002632
:1005200010B107E0012070BD666484F83C6020468D
:1005300000F01AF8206CC00610D4206C20F488500B
:1005400040F0020020642046FFF79CFE6664206CA9
:1005500020F0020040F00100206400E0012584F852
:100560003C60284670BD000000B500680C4987B0AB
:10057000884212D10B480021026842F48072026066
:10058000006800F480700590202000900320CDE9E1
:1005900001016946044800F0FFF807B000BD000003
:1005A0000020014044380240000002402DE9F041A3
:1005B000044600680D4681684FF0000749050BD5D9
:1005C0008068C00508D5206C40F02000206484F8C5
:1005D0003C700120BDE8F08100F0BCF906460FE058
:1005E000681C0DD025B100F0B5F9801BA84207D9D1
:1005F000206C40F00400206484F83C700320E9E79C
:10060000206800688007EBD521686FF01200086051
:10061000206C40F4007020642068816811F0405F15
:1006200013D1A16989B9C16A11F4700F02D0806831
:1006300040050AD4206C20F480702064206CC00433
:1006400003D4206C40F0010020640020C2E70000C9
:1006500018B50021009190F83C20012A07D0012212
:1006600080F83C2002689368DB0702D011E002208A
:1006700018BD936843F001039360204A204B126831
:10068000B2FBF3F202EB420200E0521E0092002A9B
:10069000FBD102689368DB072DD0036C40F2016444
:1006A000A34343F48073036453685B0505D5036C6F
:1006B00023F4005343F480530364036CDB0404D538
:1006C000436C23F00603436400E0416480F83C106F
:1006D0000C496FF02203136049680068C90602D014
:1006E0000949884207D1816811F0405F03D18168D0
:1006F00041F080418160002018BD000020000020F2
:1007000040420F00002301400020014090F83C10BF
:1007100001290CD0012180F83C1001688A6822F080
:1007200001028A6001688968C90702D007E00220D7
:100730007047016C21F4885141F0010101640021EE
:1007400080F83C100846704770B5044600F002F986
:100750000546601C02D004480078044400F0FAF812
:10076000401BA042FAD370BD14000020012804D120
:100770000248017881F001010170704700000020FB
:10078000044910B50A68024202D00860FFF7EEFF84
:1007900010BD0000143C01402DE9F84FDFF87CB19A
:1007A00000224FF001084FF0030A4FF00F090BF140
:1007B000040E00BF0B6808FA02F42340A3426ED176
:1007C0004D68022D01D0122D0ED1D50800EB850CFD
:1007D000DCF820505607F70E09FA07F6B5430E6904
:1007E000BE402E43CCF82060066855000F790AFA07
:1007F00005FC07F0030726EA0C06AF403743076005
:100800004E68012E05D0022E03D0112E01D0122EDB
:100810000ED18668CF6826EA0C06AF403743876062
:100820004668A6430C79C4F30014944034434460F2
:10083000C6688C6826EA0C06AC403443C4604C6839
:10084000E40065D5364C256845F48045256024686C
:1008500022F0030504F480440094324C2E19D6F89B
:10086000084895072F0F09FA07F5AC432E4DA8420B
:1008700001D1002524E02D4DA84201D101251FE022
:100880002B4DA84201D102251AE02A4DA84201D1E0
:10089000032515E0284DA84202D1042510E037E0D9
:1008A000264DA84201D105250AE0254DA84201D1D7
:1008B000062505E0234DA84201D1072500E00825C3
:1008C000BD402543C6F80858DBF800405D464E6839
:1008D0009C43F60300D51C432C60DEF800407546AF
:1008E0004E689C43B60300D51C432C600B4D083565
:1008F0002C684E689C43F60200D51C432C60074DC3
:100900000C352C684E689C43B60200D51C432C6005
:10091000521C102AFFF44EAFBDE8F88F003C014096
:100920004438024000300140000002400004024010
:1009300000080240000C0240001002400014024077
:1009400000180240001C02400AB18161704709048E
:10095000FBE7000001488068704700001400002099
:1009600002488168027811448160704714000020B9
:100970000B4810B5016841F400710160016841F451
:1009800080610160016841F480710160032000F022
:1009900097F8002000F006F800F024F8002010BDC1
:1009A000003C024070B50D4D04464FF47A71287832
:1009B000B1FBF0F00A490968B1FBF0F000F0FDFA74
:1009C00048B9102C07D200222146501E00F058F8DA
:1009D00000206C6070BD012070BD0000140000207C
:1009E000200000201F4808B5016841F480410160E3
:1009F000006800F4804000901A48001F016841F030
:100A000080510160006800F080500090032000F0E9
:100A100057F8002211466FF00B0000F031F8002269
:100A200011466FF00A0000F02BF8002211466FF01B
:100A3000090000F025F800221146501F00F020F8B0
:100A400000221146101F00F01BF800221146901ED4
:100A500000F016F80022BDE808401146501E00F0D4
:100A60000FB800004438024000F01F0201219140FD
:100A70004009800000F1E020C0F80011704700003C
:100A8000F0B40E4B1B680C46C3F30223C3F10705F9
:100A9000042D00D90425191D072901D2002300E0E7
:100AA000DB1E012606FA05F1491E214099409E40B1
:100AB000761E16403143F0BC00F0FEBC0CED00E0A9
:100AC000064900F0070208684FF6FF03184040EAA5
:100AD0000220034A10430860704700000CED00E05C
:100AE0000000FA052DE9F0470E46050065D0DFF855
:100AF0001481D8F80000F7B200F00F00B04207D21E
:100B000088F80070D8F8000000F00F00B04254D10F
:100B100028683D4C810712D5400703D5206840F472
:100B2000E05020602878000703D5206840F460403A
:100B300020602068A96820F0F00008432060287831
:100B4000C0072DD0304968680839012812D0022822
:100B500013D0032811D00968890700292DDA2168EC
:100B600021F0030101432160FFF7F4FE814641F2C9
:100B7000883A0EE009688903EFE709688901ECE724
:100B8000FFF7E8FEA0EB0901514502D90320BDE8BB
:100B9000F0872068696800F00C00B0EB810FEFD19E
:100BA000D8F80010404601F00F01B14207D9077094
:100BB000006800F00F00B04201D00120E7E728787C
:100BC000400705D52068E96820F4E050084320601C
:100BD0002878000706D52068296920F4604040EA9B
:100BE000C100206000F01CF82168084AC1F303111D
:100BF000515CC840064908600020FFF7D3FE002082
:100C0000C5E70000003C024008380240101A000806
:100C100020000020014800687047000020000020EC
:100C2000154810B5006810F00C02144813D0144990
:100C3000042A0FD0082A0ED10F4C241F22682368E3
:100C400002F03F025B0207D52068C0F38810A0FBCA
:100C5000010106E0084610BD2168C1F38811A1FB1F
:100C600000010023FFF7ACFA2168C1F30141491CE0
:100C70004900B0FBF1F010BD083802400024F40038
:100C800040787D012DE9F84F050076D02878DFF80F
:100C9000F8B2BE4CC00749D0DBF800105846C1F38B
:100CA0008101012908D00068C0F3810002280AD11F
:100CB000201D0068400206D52068800336D568688C
:100CC0000028E2D032E06868B0F5803F10D0B0F57F
:100CD000A02F206810D020F480302060206820F4FD
:100CE000802020606868A0B1FFF734FE06460CE063
:100CF000206840F48030F4E740F480202060F7E77B
:100D0000FFF728FE801B642873D820688003F7D57E
:100D10000CE0FFF71FFE064605E000BFFFF71AFED6
:100D2000801B6428F0D820688003F7D42878DFF887
:100D3000608280074FF000093ED5DBF8001058466E
:100D400011F00C0F09D00068C0F3810002280BD10C
:100D50008D48001F0068400206D42068800715D522
:100D6000E868012809D111E0E868B8B10120C8F8A5
:100D70000000FFF7EFFD064605E002E1FFF7EAFDA0
:100D8000801B0228C0D820688007F7D52068296911
:100D900020F0F80040EAC10020600DE0C8F80090A3
:100DA000FFF7D8FD064604E0FFF7D4FD801B0228BC
:100DB0001FD820688007F7D42878000722D5724E04
:100DC000744869696C3671B101210160FFF7C2FD99
:100DD000074604E0FFF7BEFDC01B022809D83068B3
:100DE0008007F7D50EE0C0F80090FFF7B3FD074687
:100DF00005E083E0FFF7AEFDC01B02287ED8306817
:100E00008007F7D42878400768D5DFF87CA1002751
:100E10000AF1380ADAF80000C0000BD4DAF8001042
:100E200041F08051CAF80010DAF80000012700F004
:100E300080500090584E3068C00510D4306840F49F
:100E400080703060FFF786FD009005E0FFF782FDBF
:100E50000099401A022851D83068C005F6D54A4E8C
:100E6000A868683601280FD00528306810D020F017
:100E700001003060306820F004003060A868B8B12C
:100E8000FFF768FD00900FE0306840F00100F4E7E4
:100E900040F004003060F7E7FFF75CFD0099411A6D
:100EA00041F28830814264D830688007F4D50EE082
:100EB000FFF750FD009007E0FFF74CFD0099411A45
:100EC00041F28830814254D830688007F4D42FB181
:100ED000DAF8001021F08051CAF80010A869C0B3F8
:100EE000DBF80010C1F3810102294AD002284846EC
:100EF00007D0C8F86000FFF72DFD00E039E0054697
:100F00003AE04746C8F86000FFF724FD064604E0D3
:100F1000FFF720FD801B02282BD820688001F7D422
:100F2000D5E907010843A96A1C4A490802EB0141B7
:100F30006A6A41EA8211084395F82C1040EA01617F
:100F40001148001F016001203866FFF703FD0546C8
:100F500005E014E0FFF7FEFC401B022809D82068DA
:100F60008001F7D50BE000BFFFF7F4FC401B02281F
:100F700002D90320BDE8F88F20688001F4D4002056
:100F8000F8E70120F6E70000083802400038024088
:100F900000004742800E4742007000400000FFFF03
:100FA0004FF0E0210428086903D020F00400086114
:100FB000704740F00400FAE7704710B5401EB0F1EA
:100FC000807F01D3012010BD4FF0E02460610F212C
:100FD000601700F071FA0020A06107202061002056
:100FE00010BD10B5FFF7E8FF10BD10B590F8382020
:100FF000012A25D0012280F83820CA688C6822F4A2
:10100000407222434C6822F4806222430C6822F42E
:10101000006222430C6922F4805222434C6922F47C
:10102000005222438C6922F48042224322F4004180
:10103000026800232143516480F83830002010BD3D
:10104000022010BD30B590F83820012A20D00122AE
:1010500080F83820022380F8393003685C6824F077
:1010600070045C6003685C680D682C435C60036816
:101070009C6824F080049C6003689C6849680C4369
:101080009C6080F83920002180F83810084630BD77
:10109000022030BD00B5104B02680021022085B04F
:1010A0009A4209D102020092CDE901010120CDE965
:1010B0000310694609480AE0094B9A4209D14022C7
:1010C0000092CDE90101CDE9031069460548FFF71B
:1010D00063FB05B000BD00000000014000100240AD
:1010E000000400400000024070B5044690F838004B
:1010F0000D4601280DD0012684F83860022084F8BE
:10110000390042B1042A18D0082A2AD00C2A4DD11D
:1011100039E0022070BD206800F0C2FA20688169C1
:1011200041F0080181612068816921F00401816139
:10113000206881692A69114311E0206800F0DCFA17
:101140002068816941F4006181612068816921F42E
:1011500080618161206881692A6941EA0221816197
:1011600024E0206800F0FAFA2068C16941F0080123
:10117000C1612068C16921F00401C1612068C169B1
:101180002A69114311E0206800F018FB2068C1694A
:1011900041F40061C1612068C16921F48061C161CD
:1011A0002068C1692A6941EA0221C16184F8396075
:1011B000002084F8380070BD10B5040003D094F806
:1011C000390010B107E0012010BD002084F838007C
:1011D000204600F00DF8022084F83900211D206817
:1011E00000F0F2F9012084F83900002010BD000061
:1011F00008B500680C49884208D10C48016841F0E4
:1012000001010160006800F001000BE0084988421C
:1012100009D10648001F016841F002010160006821
:1012200000F00200009008BD000001404438024078
:101230000004004010B504460068012200F024FAC2
:1012400008492068884202D00749884203D1416C8E
:1012500041F4004141642068016841F001010160EE
:10126000002010BD000001400004014010B50446FC
:101270000068002200F008FA114841F211122168BA
:101280009310814202D00F48814209D1086A10426E
:1012900006D1086A184203D1486C20F40040486423
:1012A0002068016A114206D1016A194203D101681E
:1012B00021F001010160012084F83900002010BDF7
:1012C0000000014000040140FEE700007FB5124825
:1012D00010490024C0E90014046184614FF00071DA
:1012E000046281600D49C0E90A140125C460C5612A
:1012F00045610463FFF70DF900B1FEE70520CDE974
:101300000005694602940448FFF75AF8002800D007
:10131000FEE77FBD00200140240000200100000FF7
:1013200070B5274886B00024016841F001010160D2
:10133000016801F001010591016841F010010160AF
:10134000016801F010010591016841F00801016098
:1013500000681C4E00F008004FF460450590002224
:1013600029463046FFF7F0FA072000901648CDE9ED
:10137000010469461548FFF70FFA01200095CDE9F1
:101380000104694630460394FFF706FA002211462D
:101390000620FFF775FB0620FFF766FB0022012100
:1013A0000720FFF76DFB0720FFF75EFB00220121FE
:1013B0000820FFF765FB0820FFF756FB06B070BD5D
:1013C00030380240000C02400000111000000240C2
:1013D00010B51F4890B01D4901604FF4C86100244A
:1013E000C0E90114C821C0E903144461FFF7E4FE19
:1013F00000B1FEE70E940EA915480F94FFF722FEE8
:1014000000B1FEE7602000900F20CDE901040394B5
:1014100004940594002269460D480694FFF764FE83
:1014200000B1FEE70794089409944FF400500A9421
:10143000CDE90B4007A906480D94FFF7D6FD00B192
:10144000FEE70348FFF726FE10B010BD0000014084
:101450006C00002010B516488AB0144901604FF4A2
:10146000C8610024C0E90114C821C0E90314FFF7D2
:10147000A3FE00B1FEE7079407A90D480894FFF703
:10148000E1FD00B1FEE7602000900F20CDE90104EE
:101490000022694606480494FFF726FE00B1FEE7E5
:1014A0000348FFF7F7FD0AB010BD0000000400403C
:1014B000A8000020FEE770470907090E002806DA99
:1014C00000F00F0000F1E02080F8141D704700F1DB
:1014D000E02080F8001470477047704710B5FFF7A0
:1014E0003FFABDE81040FFF77CBD000010B51F4873
:1014F00092B00024016841F080510160006800F062
:10150000805011901A48016841F4804101600068E0
:10151000069400F480401190022000900120039076
:10152000102004906846FFF7ADFB00B1FEE70F20E6
:10153000CDE90C040E940F9400210CA81094FFF731
:10154000D1FA00B1FEE7FFF765FB4FF47A71B0FB0B
:10155000F1F0FFF732FD0420FFF722FD00221146D3
:10156000501EFFF78DFA12B010BD00004038024047
:10157000007000401048016841F4700101600F489C
:10158000016841F0010101600C4A0021083211603C
:1015900002680B4B1A400260031D0A4A1A60026877
:1015A00022F48022026005480C300160024958068E
:1015B000803908607047000088ED00E00038024084
:1015C000FFFFF6FE10300024F0B50268234B244DD7
:1015D000244E254F254C4FF0804C984209D0604551
:1015E00007D0A84205D0B04203D0B84201D0A042F3
:1015F00004D122F0700E4A6842EA0E0298421BD0D3
:10160000604519D0A84217D0B04215D0B84213D0C7
:10161000A04211D0164DA8420ED0164DA8420BD0B4
:10162000154DA84208D0154DA84205D0144DA8422A
:1016300002D0144DA84203D122F44075CA682A434F
:1016400002608A68C2620A688262984201D0A0423F
:1016500001D10969016301214161F0BD0000014030
:101660000004004000080040000C0040000401405D
:101670000040014000440140004801400018004083
:10168000001C00400020004010B50123046A8B407C
:101690009C430462036A8A401343036210BD000046
:1016A00030B5026A22F001020262026A436884696C
:1016B0000D6824F07304254322F002048A68224353
:1016C0000B4CA04202D00B4CA0420BD122F00804DC
:1016D000CA6823F4407322434C6922F004021C437D
:1016E0008B6923434360856149684163026230BD71
:1016F000000001400004014030B5026A22F01002EF
:101700000262026A436884690D6824F4E64444EA8C
:1017100005248D6822F0200242EA05120D4DA842F0
:1017200002D00D4DA8420ED1CD6822F0800242EACF
:1017300005124D6923F4406343EA85038D6922F065
:10174000400243EA85034360846149688163026221
:1017500030BD0000000001400004014030B5026AC5
:1017600022F480720262036A4268C46923F400733F
:1017700024F073050C682C438D6843EA05230D4D56
:10178000A84202D00C4DA8420ED1CD6823F40063CC
:1017900043EA05234D6922F4405242EA05128D695D
:1017A00023F4806342EA05124260C4614968C16360
:1017B000036230BD000001400004014030B5026A00
:1017C00022F480520262046A4268C3690D6823F4FD
:1017D000E64343EA05238D6824F4005444EA0534C3
:1017E000084DA84202D0084DA84204D14D6922F408
:1017F000804242EA85124260C36149680164046222
:1018000030BD00000000014000040140FEE702E09E
:1018100008C8121F08C1002AFAD17047704700207B
:1018200001E001C1121F002AFBD1704770B54FF4CF
:10183000FA75234C234E06E01939E16030684163A4
:101840002846FEF781FFE1680029F5DC1D4E3C3695
:101850002069002808DDE0681938E06031684863D5
:101860002846FEF771FFF3E70020E0602061A060EA
:10187000154C02464FF400412046FFF765F8002260
:101880004FF480412046FFF75FF800224FF40051EB
:101890002046FFF759F80022A1142046FFF754F81C
:1018A00000210848FFF7E2FC064800213C30FFF722
:1018B000DDFCBDE8704003484838FEF727BF000054
:1018C000000000206C000020000C02402DE9F041D7
:1018D000014620484FF40055002486146F00C829A3
:1018E0000DDA294601220546FFF72EF8002231467F
:1018F0002846FFF729F800223946284611E0A1F1D1
:10190000C802B2F5967F0FD8314601220646FFF78E
:101910001BF8002229463046FFF716F80022394608
:101920003046FFF711F812E0B1F5FA7F0FDD012222
:1019300039460446FFF708F8002231462046FFF7F3
:1019400003F8002229462046FEF7FEFF0124204628
:10195000BDE8F081000C024010B50548FEF778FEA6
:1019600003480021BDE810408430FFF763BC00004D
:1019700024000020FEF7FCFFFFF7B8FDFFF7D0FCC6
:10198000FFF7A4FCFFF724FDFFF764FD4FF47A7521
:101990001C4E1D4C30E000BFFFF7DEFF0122D103DB
:1019A0001A48FEF7D1FF174829468438FEF7FEFD96
:1019B00058B914488438FEF7A9FDA06000EB400038
:1019C00060606068FFF782FF6070607858B12069DE
:1019D000C82808DC323000E03238206131684863C2
:1019E0002846FEF7B1FE607810B920690028F3DCC4
:1019F00000210448FFF73AFC20780028CCD1FFF7FB
:101A000015FFF9E7A800002000000020000C0240AC
:101A1000000000000000000001020304060708099E
:101A2000401A000800000020240000000E180008E2
:101A3000641A000824000020C40400001E180008D6
:101A40000000000000000000000000000000000096
:101A50000000000001000000100000000000000075
:041A60000024F4006A
:040000050800018965
:00000001FF
